{
  "_format": "hh-sol-artifact-1",
  "contractName": "BigotFamNFT",
  "sourceName": "contracts/BigotFamNFT.sol",
  "abi": [
    {
      "inputs": [],
      "stateMutability": "nonpayable",
      "type": "constructor"
    },
    {
      "inputs": [],
      "name": "ApprovalCallerNotOwnerNorApproved",
      "type": "error"
    },
    {
      "inputs": [],
      "name": "ApprovalQueryForNonexistentToken",
      "type": "error"
    },
    {
      "inputs": [],
      "name": "BalanceQueryForZeroAddress",
      "type": "error"
    },
    {
      "inputs": [],
      "name": "MintERC2309QuantityExceedsLimit",
      "type": "error"
    },
    {
      "inputs": [],
      "name": "MintToZeroAddress",
      "type": "error"
    },
    {
      "inputs": [],
      "name": "MintZeroQuantity",
      "type": "error"
    },
    {
      "inputs": [],
      "name": "OwnerQueryForNonexistentToken",
      "type": "error"
    },
    {
      "inputs": [],
      "name": "OwnershipNotInitializedForExtraData",
      "type": "error"
    },
    {
      "inputs": [],
      "name": "TransferCallerNotOwnerNorApproved",
      "type": "error"
    },
    {
      "inputs": [],
      "name": "TransferFromIncorrectOwner",
      "type": "error"
    },
    {
      "inputs": [],
      "name": "TransferToNonERC721ReceiverImplementer",
      "type": "error"
    },
    {
      "inputs": [],
      "name": "TransferToZeroAddress",
      "type": "error"
    },
    {
      "inputs": [],
      "name": "URIQueryForNonexistentToken",
      "type": "error"
    },
    {
      "anonymous": false,
      "inputs": [
        {
          "indexed": true,
          "internalType": "address",
          "name": "owner",
          "type": "address"
        },
        {
          "indexed": true,
          "internalType": "address",
          "name": "approved",
          "type": "address"
        },
        {
          "indexed": true,
          "internalType": "uint256",
          "name": "tokenId",
          "type": "uint256"
        }
      ],
      "name": "Approval",
      "type": "event"
    },
    {
      "anonymous": false,
      "inputs": [
        {
          "indexed": true,
          "internalType": "address",
          "name": "owner",
          "type": "address"
        },
        {
          "indexed": true,
          "internalType": "address",
          "name": "operator",
          "type": "address"
        },
        {
          "indexed": false,
          "internalType": "bool",
          "name": "approved",
          "type": "bool"
        }
      ],
      "name": "ApprovalForAll",
      "type": "event"
    },
    {
      "anonymous": false,
      "inputs": [
        {
          "indexed": true,
          "internalType": "uint256",
          "name": "fromTokenId",
          "type": "uint256"
        },
        {
          "indexed": false,
          "internalType": "uint256",
          "name": "toTokenId",
          "type": "uint256"
        },
        {
          "indexed": true,
          "internalType": "address",
          "name": "from",
          "type": "address"
        },
        {
          "indexed": true,
          "internalType": "address",
          "name": "to",
          "type": "address"
        }
      ],
      "name": "ConsecutiveTransfer",
      "type": "event"
    },
    {
      "anonymous": false,
      "inputs": [
        {
          "indexed": true,
          "internalType": "address",
          "name": "previousOwner",
          "type": "address"
        },
        {
          "indexed": true,
          "internalType": "address",
          "name": "newOwner",
          "type": "address"
        }
      ],
      "name": "OwnershipTransferred",
      "type": "event"
    },
    {
      "anonymous": false,
      "inputs": [
        {
          "indexed": true,
          "internalType": "address",
          "name": "from",
          "type": "address"
        },
        {
          "indexed": true,
          "internalType": "address",
          "name": "to",
          "type": "address"
        },
        {
          "indexed": true,
          "internalType": "uint256",
          "name": "tokenId",
          "type": "uint256"
        }
      ],
      "name": "Transfer",
      "type": "event"
    },
    {
      "inputs": [
        {
          "internalType": "address",
          "name": "to",
          "type": "address"
        },
        {
          "internalType": "uint256",
          "name": "tokenId",
          "type": "uint256"
        }
      ],
      "name": "approve",
      "outputs": [],
      "stateMutability": "payable",
      "type": "function"
    },
    {
      "inputs": [
        {
          "internalType": "address",
          "name": "owner",
          "type": "address"
        }
      ],
      "name": "balanceOf",
      "outputs": [
        {
          "internalType": "uint256",
          "name": "",
          "type": "uint256"
        }
      ],
      "stateMutability": "view",
      "type": "function"
    },
    {
      "inputs": [],
      "name": "baseURI",
      "outputs": [
        {
          "internalType": "string",
          "name": "",
          "type": "string"
        }
      ],
      "stateMutability": "view",
      "type": "function"
    },
    {
      "inputs": [],
      "name": "cost",
      "outputs": [
        {
          "internalType": "uint256",
          "name": "",
          "type": "uint256"
        }
      ],
      "stateMutability": "view",
      "type": "function"
    },
    {
      "inputs": [
        {
          "internalType": "uint256",
          "name": "tokenId",
          "type": "uint256"
        }
      ],
      "name": "getApproved",
      "outputs": [
        {
          "internalType": "address",
          "name": "",
          "type": "address"
        }
      ],
      "stateMutability": "view",
      "type": "function"
    },
    {
      "inputs": [
        {
          "internalType": "address",
          "name": "owner",
          "type": "address"
        },
        {
          "internalType": "address",
          "name": "operator",
          "type": "address"
        }
      ],
      "name": "isApprovedForAll",
      "outputs": [
        {
          "internalType": "bool",
          "name": "",
          "type": "bool"
        }
      ],
      "stateMutability": "view",
      "type": "function"
    },
    {
      "inputs": [],
      "name": "isRevealed",
      "outputs": [
        {
          "internalType": "bool",
          "name": "",
          "type": "bool"
        }
      ],
      "stateMutability": "view",
      "type": "function"
    },
    {
      "inputs": [],
      "name": "maxSupply",
      "outputs": [
        {
          "internalType": "uint256",
          "name": "",
          "type": "uint256"
        }
      ],
      "stateMutability": "view",
      "type": "function"
    },
    {
      "inputs": [
        {
          "internalType": "uint256",
          "name": "_amount",
          "type": "uint256"
        }
      ],
      "name": "mint",
      "outputs": [],
      "stateMutability": "payable",
      "type": "function"
    },
    {
      "inputs": [
        {
          "internalType": "address",
          "name": "addr",
          "type": "address"
        }
      ],
      "name": "mintedNFTNumber",
      "outputs": [
        {
          "internalType": "uint256",
          "name": "",
          "type": "uint256"
        }
      ],
      "stateMutability": "view",
      "type": "function"
    },
    {
      "inputs": [],
      "name": "name",
      "outputs": [
        {
          "internalType": "string",
          "name": "",
          "type": "string"
        }
      ],
      "stateMutability": "view",
      "type": "function"
    },
    {
      "inputs": [],
      "name": "owner",
      "outputs": [
        {
          "internalType": "address",
          "name": "",
          "type": "address"
        }
      ],
      "stateMutability": "view",
      "type": "function"
    },
    {
      "inputs": [
        {
          "internalType": "uint256",
          "name": "tokenId",
          "type": "uint256"
        }
      ],
      "name": "ownerOf",
      "outputs": [
        {
          "internalType": "address",
          "name": "",
          "type": "address"
        }
      ],
      "stateMutability": "view",
      "type": "function"
    },
    {
      "inputs": [],
      "name": "perWalletMaxAmount",
      "outputs": [
        {
          "internalType": "uint256",
          "name": "",
          "type": "uint256"
        }
      ],
      "stateMutability": "view",
      "type": "function"
    },
    {
      "inputs": [],
      "name": "preSaleIsActive",
      "outputs": [
        {
          "internalType": "bool",
          "name": "",
          "type": "bool"
        }
      ],
      "stateMutability": "view",
      "type": "function"
    },
    {
      "inputs": [],
      "name": "publicSaleIsActive",
      "outputs": [
        {
          "internalType": "bool",
          "name": "",
          "type": "bool"
        }
      ],
      "stateMutability": "view",
      "type": "function"
    },
    {
      "inputs": [],
      "name": "renounceOwnership",
      "outputs": [],
      "stateMutability": "nonpayable",
      "type": "function"
    },
    {
      "inputs": [],
      "name": "reveal",
      "outputs": [],
      "stateMutability": "nonpayable",
      "type": "function"
    },
    {
      "inputs": [],
      "name": "root",
      "outputs": [
        {
          "internalType": "bytes32",
          "name": "",
          "type": "bytes32"
        }
      ],
      "stateMutability": "view",
      "type": "function"
    },
    {
      "inputs": [
        {
          "internalType": "uint256",
          "name": "_tokenId",
          "type": "uint256"
        },
        {
          "internalType": "uint256",
          "name": "_salePrice",
          "type": "uint256"
        }
      ],
      "name": "royaltyInfo",
      "outputs": [
        {
          "internalType": "address",
          "name": "",
          "type": "address"
        },
        {
          "internalType": "uint256",
          "name": "",
          "type": "uint256"
        }
      ],
      "stateMutability": "view",
      "type": "function"
    },
    {
      "inputs": [
        {
          "internalType": "address",
          "name": "from",
          "type": "address"
        },
        {
          "internalType": "address",
          "name": "to",
          "type": "address"
        },
        {
          "internalType": "uint256",
          "name": "tokenId",
          "type": "uint256"
        }
      ],
      "name": "safeTransferFrom",
      "outputs": [],
      "stateMutability": "payable",
      "type": "function"
    },
    {
      "inputs": [
        {
          "internalType": "address",
          "name": "from",
          "type": "address"
        },
        {
          "internalType": "address",
          "name": "to",
          "type": "address"
        },
        {
          "internalType": "uint256",
          "name": "tokenId",
          "type": "uint256"
        },
        {
          "internalType": "bytes",
          "name": "_data",
          "type": "bytes"
        }
      ],
      "name": "safeTransferFrom",
      "outputs": [],
      "stateMutability": "payable",
      "type": "function"
    },
    {
      "inputs": [
        {
          "internalType": "address",
          "name": "operator",
          "type": "address"
        },
        {
          "internalType": "bool",
          "name": "approved",
          "type": "bool"
        }
      ],
      "name": "setApprovalForAll",
      "outputs": [],
      "stateMutability": "nonpayable",
      "type": "function"
    },
    {
      "inputs": [
        {
          "internalType": "string",
          "name": "_newBaseURI",
          "type": "string"
        }
      ],
      "name": "setBaseURI",
      "outputs": [],
      "stateMutability": "nonpayable",
      "type": "function"
    },
    {
      "inputs": [
        {
          "internalType": "uint256",
          "name": "_cost",
          "type": "uint256"
        }
      ],
      "name": "setCost",
      "outputs": [],
      "stateMutability": "nonpayable",
      "type": "function"
    },
    {
      "inputs": [
        {
          "internalType": "address",
          "name": "recipient",
          "type": "address"
        },
        {
          "internalType": "uint96",
          "name": "value",
          "type": "uint96"
        }
      ],
      "name": "setRoyalties",
      "outputs": [],
      "stateMutability": "nonpayable",
      "type": "function"
    },
    {
      "inputs": [
        {
          "internalType": "bytes4",
          "name": "interfaceId",
          "type": "bytes4"
        }
      ],
      "name": "supportsInterface",
      "outputs": [
        {
          "internalType": "bool",
          "name": "",
          "type": "bool"
        }
      ],
      "stateMutability": "view",
      "type": "function"
    },
    {
      "inputs": [],
      "name": "symbol",
      "outputs": [
        {
          "internalType": "string",
          "name": "",
          "type": "string"
        }
      ],
      "stateMutability": "view",
      "type": "function"
    },
    {
      "inputs": [],
      "name": "togglePublicSale",
      "outputs": [],
      "stateMutability": "nonpayable",
      "type": "function"
    },
    {
      "inputs": [
        {
          "internalType": "uint256",
          "name": "tokenId",
          "type": "uint256"
        }
      ],
      "name": "tokenURI",
      "outputs": [
        {
          "internalType": "string",
          "name": "",
          "type": "string"
        }
      ],
      "stateMutability": "view",
      "type": "function"
    },
    {
      "inputs": [],
      "name": "totalSupply",
      "outputs": [
        {
          "internalType": "uint256",
          "name": "",
          "type": "uint256"
        }
      ],
      "stateMutability": "view",
      "type": "function"
    },
    {
      "inputs": [
        {
          "internalType": "address",
          "name": "from",
          "type": "address"
        },
        {
          "internalType": "address",
          "name": "to",
          "type": "address"
        },
        {
          "internalType": "uint256",
          "name": "tokenId",
          "type": "uint256"
        }
      ],
      "name": "transferFrom",
      "outputs": [],
      "stateMutability": "payable",
      "type": "function"
    },
    {
      "inputs": [
        {
          "internalType": "address",
          "name": "newOwner",
          "type": "address"
        }
      ],
      "name": "transferOwnership",
      "outputs": [],
      "stateMutability": "nonpayable",
      "type": "function"
    },
    {
      "inputs": [],
      "name": "withdraw",
      "outputs": [],
      "stateMutability": "payable",
      "type": "function"
    }
  ],
  "bytecode": "0x6080604052660bb9551fc24000600b55610d05600c556005600d5560405180602001604052806000815250600e908051906020019062000041929190620003c5565b503480156200004f57600080fd5b506040518060400160405280600b81526020017f4269676f7446616d4e46540000000000000000000000000000000000000000008152506040518060400160405280600381526020017f42474600000000000000000000000000000000000000000000000000000000008152508160029080519060200190620000d4929190620003c5565b508060039080519060200190620000ed929190620003c5565b50620000fe6200014060201b60201c565b6000819055505050620001266200011a6200014960201b60201c565b6200015160201b60201c565b6200013a306102ee6200021760201b60201c565b620005f5565b60006001905090565b600033905090565b6000600860009054906101000a900473ffffffffffffffffffffffffffffffffffffffff16905081600860006101000a81548173ffffffffffffffffffffffffffffffffffffffff021916908373ffffffffffffffffffffffffffffffffffffffff1602179055508173ffffffffffffffffffffffffffffffffffffffff168173ffffffffffffffffffffffffffffffffffffffff167f8be0079c531659141344cd1fd0a4f28419497f9722a3daafe3b4186f6b6457e060405160405180910390a35050565b62000227620003bb60201b60201c565b6bffffffffffffffffffffffff16816bffffffffffffffffffffffff16111562000288576040517f08c379a00000000000000000000000000000000000000000000000000000000081526004016200027f90620004c3565b60405180910390fd5b600073ffffffffffffffffffffffffffffffffffffffff168273ffffffffffffffffffffffffffffffffffffffff161415620002fb576040517f08c379a0000000000000000000000000000000000000000000000000000000008152600401620002f290620004e5565b60405180910390fd5b60405180604001604052808373ffffffffffffffffffffffffffffffffffffffff168152602001826bffffffffffffffffffffffff16815250600960008201518160000160006101000a81548173ffffffffffffffffffffffffffffffffffffffff021916908373ffffffffffffffffffffffffffffffffffffffff16021790555060208201518160000160146101000a8154816bffffffffffffffffffffffff02191690836bffffffffffffffffffffffff1602179055509050505050565b6000612710905090565b828054620003d39062000518565b90600052602060002090601f016020900481019282620003f7576000855562000443565b82601f106200041257805160ff191683800117855562000443565b8280016001018555821562000443579182015b828111156200044257825182559160200191906001019062000425565b5b50905062000452919062000456565b5090565b5b808211156200047157600081600090555060010162000457565b5090565b600062000484602a8362000507565b915062000491826200057d565b604082019050919050565b6000620004ab60198362000507565b9150620004b882620005cc565b602082019050919050565b60006020820190508181036000830152620004de8162000475565b9050919050565b6000602082019050818103600083015262000500816200049c565b9050919050565b600082825260208201905092915050565b600060028204905060018216806200053157607f821691505b602082108114156200054857620005476200054e565b5b50919050565b7f4e487b7100000000000000000000000000000000000000000000000000000000600052602260045260246000fd5b7f455243323938313a20726f79616c7479206665652077696c6c2065786365656460008201527f2073616c65507269636500000000000000000000000000000000000000000000602082015250565b7f455243323938313a20696e76616c696420726563656976657200000000000000600082015250565b6139e880620006056000396000f3fe6080604052600436106101f95760003560e01c80636c0360eb1161010d578063a475b5dd116100a0578063d5abeb011161006f578063d5abeb01146106c0578063e222c7f9146106eb578063e985e9c514610702578063ebf0c7171461073f578063f2fde38b1461076a576101f9565b8063a475b5dd14610627578063b88d4fde1461063e578063c21b471b1461065a578063c87b56dd14610683576101f9565b806395d89b41116100dc57806395d89b411461057a5780639ecca093146105a5578063a0712d68146105e2578063a22cb465146105fe576101f9565b80636c0360eb146104d057806370a08231146104fb578063715018a6146105385780638da5cb5b1461054f576101f9565b806323b872dd1161019057806344a0d68a1161015f57806344a0d68a146103eb57806345f71fc01461041457806354214f691461043f57806355f804b31461046a5780636352211e14610493576101f9565b806323b872dd1461036b5780632a55205a146103875780633ccfd60b146103c557806342842e0e146103cf576101f9565b80630fcf2e75116101cc5780630fcf2e75146102bf57806313faede6146102ea57806318160ddd146103155780631f0234d814610340576101f9565b806301ffc9a7146101fe57806306fdde031461023b578063081812fc14610266578063095ea7b3146102a3575b600080fd5b34801561020a57600080fd5b5061022560048036038101906102209190612bba565b610793565b604051610232919061304f565b60405180910390f35b34801561024757600080fd5b506102506107b5565b60405161025d9190613085565b60405180910390f35b34801561027257600080fd5b5061028d60048036038101906102889190612c4d565b610847565b60405161029a9190612fbf565b60405180910390f35b6102bd60048036038101906102b89190612b42565b6108c6565b005b3480156102cb57600080fd5b506102d4610a0a565b6040516102e1919061304f565b60405180910390f35b3480156102f657600080fd5b506102ff610a1d565b60405161030c9190613227565b60405180910390f35b34801561032157600080fd5b5061032a610a23565b6040516103379190613227565b60405180910390f35b34801561034c57600080fd5b50610355610a3a565b604051610362919061304f565b60405180910390f35b61038560048036038101906103809190612a3c565b610a4d565b005b34801561039357600080fd5b506103ae60048036038101906103a99190612c76565b610d72565b6040516103bc929190613026565b60405180910390f35b6103cd610f5d565b005b6103e960048036038101906103e49190612a3c565b610fe5565b005b3480156103f757600080fd5b50610412600480360381019061040d9190612c4d565b611005565b005b34801561042057600080fd5b50610429611017565b6040516104369190613227565b60405180910390f35b34801561044b57600080fd5b5061045461101d565b604051610461919061304f565b60405180910390f35b34801561047657600080fd5b50610491600480360381019061048c9190612c0c565b611030565b005b34801561049f57600080fd5b506104ba60048036038101906104b59190612c4d565b611052565b6040516104c79190612fbf565b60405180910390f35b3480156104dc57600080fd5b506104e5611064565b6040516104f29190613085565b60405180910390f35b34801561050757600080fd5b50610522600480360381019061051d91906129d7565b6110f2565b60405161052f9190613227565b60405180910390f35b34801561054457600080fd5b5061054d6111ab565b005b34801561055b57600080fd5b506105646111bf565b6040516105719190612fbf565b60405180910390f35b34801561058657600080fd5b5061058f6111e9565b60405161059c9190613085565b60405180910390f35b3480156105b157600080fd5b506105cc60048036038101906105c791906129d7565b61127b565b6040516105d99190613227565b60405180910390f35b6105fc60048036038101906105f79190612c4d565b6112c4565b005b34801561060a57600080fd5b5061062560048036038101906106209190612b06565b611539565b005b34801561063357600080fd5b5061063c611644565b005b61065860048036038101906106539190612a8b565b611669565b005b34801561066657600080fd5b50610681600480360381019061067c9190612b7e565b6116dc565b005b34801561068f57600080fd5b506106aa60048036038101906106a59190612c4d565b611761565b6040516106b79190613085565b60405180910390f35b3480156106cc57600080fd5b506106d5611846565b6040516106e29190613227565b60405180910390f35b3480156106f757600080fd5b5061070061184c565b005b34801561070e57600080fd5b5061072960048036038101906107249190612a00565b611880565b604051610736919061304f565b60405180910390f35b34801561074b57600080fd5b50610754611914565b604051610761919061306a565b60405180910390f35b34801561077657600080fd5b50610791600480360381019061078c91906129d7565b61191a565b005b600061079e8261199e565b806107ae57506107ad82611a30565b5b9050919050565b6060600280546107c4906134d0565b80601f01602080910402602001604051908101604052809291908181526020018280546107f0906134d0565b801561083d5780601f106108125761010080835404028352916020019161083d565b820191906000526020600020905b81548152906001019060200180831161082057829003601f168201915b5050505050905090565b600061085282611aaa565b610888576040517fcf4700e400000000000000000000000000000000000000000000000000000000815260040160405180910390fd5b6006600083815260200190815260200160002060000160009054906101000a900473ffffffffffffffffffffffffffffffffffffffff169050919050565b60006108d182611052565b90508073ffffffffffffffffffffffffffffffffffffffff166108f2611b09565b73ffffffffffffffffffffffffffffffffffffffff16146109555761091e81610919611b09565b611880565b610954576040517fcfb3b94200000000000000000000000000000000000000000000000000000000815260040160405180910390fd5b5b826006600084815260200190815260200160002060000160006101000a81548173ffffffffffffffffffffffffffffffffffffffff021916908373ffffffffffffffffffffffffffffffffffffffff160217905550818373ffffffffffffffffffffffffffffffffffffffff168273ffffffffffffffffffffffffffffffffffffffff167f8c5be1e5ebec7d5bd14f71427d1e84f3dd0314c0f7b2291e5b200ac8c7c3b92560405160405180910390a4505050565b600f60009054906101000a900460ff1681565b600b5481565b6000610a2d611b11565b6001546000540303905090565b600f60019054906101000a900460ff1681565b6000610a5882611b1a565b90508373ffffffffffffffffffffffffffffffffffffffff168173ffffffffffffffffffffffffffffffffffffffff1614610abf576040517fa114810000000000000000000000000000000000000000000000000000000000815260040160405180910390fd5b600080610acb84611be8565b91509150610ae18187610adc611b09565b611c0f565b610b2d57610af686610af1611b09565b611880565b610b2c576040517f59c896be00000000000000000000000000000000000000000000000000000000815260040160405180910390fd5b5b600073ffffffffffffffffffffffffffffffffffffffff168573ffffffffffffffffffffffffffffffffffffffff161415610b94576040517fea553b3400000000000000000000000000000000000000000000000000000000815260040160405180910390fd5b610ba18686866001611c53565b8015610bac57600082555b600560008773ffffffffffffffffffffffffffffffffffffffff1673ffffffffffffffffffffffffffffffffffffffff168152602001908152602001600020600081546001900391905081905550600560008673ffffffffffffffffffffffffffffffffffffffff1673ffffffffffffffffffffffffffffffffffffffff1681526020019081526020016000206000815460010191905081905550610c7a85610c56888887611c59565b7c020000000000000000000000000000000000000000000000000000000017611c81565b600460008681526020019081526020016000208190555060007c020000000000000000000000000000000000000000000000000000000084161415610d02576000600185019050600060046000838152602001908152602001600020541415610d00576000548114610cff578360046000838152602001908152602001600020819055505b5b505b838573ffffffffffffffffffffffffffffffffffffffff168773ffffffffffffffffffffffffffffffffffffffff167fddf252ad1be2c89b69c2b068fc378daa952ba7f163c4a11628f55a4df523b3ef60405160405180910390a4610d6a8686866001611cac565b505050505050565b6000806000600a60008681526020019081526020016000206040518060400160405290816000820160009054906101000a900473ffffffffffffffffffffffffffffffffffffffff1673ffffffffffffffffffffffffffffffffffffffff1673ffffffffffffffffffffffffffffffffffffffff1681526020016000820160149054906101000a90046bffffffffffffffffffffffff166bffffffffffffffffffffffff166bffffffffffffffffffffffff16815250509050600073ffffffffffffffffffffffffffffffffffffffff16816000015173ffffffffffffffffffffffffffffffffffffffff161415610f085760096040518060400160405290816000820160009054906101000a900473ffffffffffffffffffffffffffffffffffffffff1673ffffffffffffffffffffffffffffffffffffffff1673ffffffffffffffffffffffffffffffffffffffff1681526020016000820160149054906101000a90046bffffffffffffffffffffffff166bffffffffffffffffffffffff166bffffffffffffffffffffffff168152505090505b6000610f12611cb2565b6bffffffffffffffffffffffff1682602001516bffffffffffffffffffffffff1686610f3e919061339e565b610f48919061336d565b90508160000151819350935050509250929050565b610f65611cbc565b6000610f6f6111bf565b73ffffffffffffffffffffffffffffffffffffffff1647604051610f9290612faa565b60006040518083038185875af1925050503d8060008114610fcf576040519150601f19603f3d011682016040523d82523d6000602084013e610fd4565b606091505b5050905080610fe257600080fd5b50565b61100083838360405180602001604052806000815250611669565b505050565b61100d611cbc565b80600b8190555050565b600d5481565b600f60029054906101000a900460ff1681565b611038611cbc565b80600e908051906020019061104e9291906127e6565b5050565b600061105d82611b1a565b9050919050565b600e8054611071906134d0565b80601f016020809104026020016040519081016040528092919081815260200182805461109d906134d0565b80156110ea5780601f106110bf576101008083540402835291602001916110ea565b820191906000526020600020905b8154815290600101906020018083116110cd57829003601f168201915b505050505081565b60008073ffffffffffffffffffffffffffffffffffffffff168273ffffffffffffffffffffffffffffffffffffffff16141561115a576040517f8f4eb60400000000000000000000000000000000000000000000000000000000815260040160405180910390fd5b67ffffffffffffffff600560008473ffffffffffffffffffffffffffffffffffffffff1673ffffffffffffffffffffffffffffffffffffffff16815260200190815260200160002054169050919050565b6111b3611cbc565b6111bd6000611d3a565b565b6000600860009054906101000a900473ffffffffffffffffffffffffffffffffffffffff16905090565b6060600380546111f8906134d0565b80601f0160208091040260200160405190810160405280929190818152602001828054611224906134d0565b80156112715780601f1061124657610100808354040283529160200191611271565b820191906000526020600020905b81548152906001019060200180831161125457829003601f168201915b5050505050905090565b6000601160008373ffffffffffffffffffffffffffffffffffffffff1673ffffffffffffffffffffffffffffffffffffffff168152602001908152602001600020549050919050565b600f60009054906101000a900460ff16611313576040517f08c379a000000000000000000000000000000000000000000000000000000000815260040161130a90613127565b60405180910390fd5b600061131d610a23565b905060008211611362576040517f08c379a000000000000000000000000000000000000000000000000000000000815260040161135990613147565b60405180910390fd5b60058211156113a6576040517f08c379a000000000000000000000000000000000000000000000000000000000815260040161139d906131a7565b60405180910390fd5b600d5482601160003373ffffffffffffffffffffffffffffffffffffffff1673ffffffffffffffffffffffffffffffffffffffff168152602001908152602001600020546113f49190613317565b1115611435576040517f08c379a000000000000000000000000000000000000000000000000000000000815260040161142c906131c7565b60405180910390fd5b600c5482826114449190613317565b1115611485576040517f08c379a000000000000000000000000000000000000000000000000000000000815260040161147c906130e7565b60405180910390fd5b3482600b54611494919061339e565b11156114d5576040517f08c379a00000000000000000000000000000000000000000000000000000000081526004016114cc90613107565b60405180910390fd5b81601160003373ffffffffffffffffffffffffffffffffffffffff1673ffffffffffffffffffffffffffffffffffffffff16815260200190815260200160002060008282546115249190613317565b925050819055506115353383611e00565b5050565b8060076000611546611b09565b73ffffffffffffffffffffffffffffffffffffffff1673ffffffffffffffffffffffffffffffffffffffff16815260200190815260200160002060008473ffffffffffffffffffffffffffffffffffffffff1673ffffffffffffffffffffffffffffffffffffffff16815260200190815260200160002060006101000a81548160ff0219169083151502179055508173ffffffffffffffffffffffffffffffffffffffff166115f3611b09565b73ffffffffffffffffffffffffffffffffffffffff167f17307eab39ab6107e8899845ad3d59bd9653f200f220920489ca2b5937696c3183604051611638919061304f565b60405180910390a35050565b61164c611cbc565b6001600f60026101000a81548160ff021916908315150217905550565b611674848484610a4d565b60008373ffffffffffffffffffffffffffffffffffffffff163b146116d65761169f84848484611e1e565b6116d5576040517fd1a57ed600000000000000000000000000000000000000000000000000000000815260040160405180910390fd5b5b50505050565b6116e4611cbc565b600073ffffffffffffffffffffffffffffffffffffffff168273ffffffffffffffffffffffffffffffffffffffff1614611753576040517f08c379a000000000000000000000000000000000000000000000000000000000815260040161174a906130a7565b60405180910390fd5b61175d8282611f7e565b5050565b606061176c82611aaa565b6117ab576040517f08c379a00000000000000000000000000000000000000000000000000000000081526004016117a290613187565b60405180910390fd5b60006117b5612114565b905060001515600f60029054906101000a900460ff16151514156117f45760405180608001604052806043815260200161397060439139915050611841565b6000815111611812576040518060200160405280600081525061183d565b8061181c846121a6565b60405160200161182d929190612f7b565b6040516020818303038152906040525b9150505b919050565b600c5481565b611854611cbc565b600f60009054906101000a900460ff1615600f60006101000a81548160ff021916908315150217905550565b6000600760008473ffffffffffffffffffffffffffffffffffffffff1673ffffffffffffffffffffffffffffffffffffffff16815260200190815260200160002060008373ffffffffffffffffffffffffffffffffffffffff1673ffffffffffffffffffffffffffffffffffffffff16815260200190815260200160002060009054906101000a900460ff16905092915050565b60105481565b611922611cbc565b600073ffffffffffffffffffffffffffffffffffffffff168173ffffffffffffffffffffffffffffffffffffffff161415611992576040517f08c379a0000000000000000000000000000000000000000000000000000000008152600401611989906130c7565b60405180910390fd5b61199b81611d3a565b50565b60006301ffc9a760e01b827bffffffffffffffffffffffffffffffffffffffffffffffffffffffff191614806119f957506380ac58cd60e01b827bffffffffffffffffffffffffffffffffffffffffffffffffffffffff1916145b80611a295750635b5e139f60e01b827bffffffffffffffffffffffffffffffffffffffffffffffffffffffff1916145b9050919050565b60007f2a55205a000000000000000000000000000000000000000000000000000000007bffffffffffffffffffffffffffffffffffffffffffffffffffffffff1916827bffffffffffffffffffffffffffffffffffffffffffffffffffffffff19161480611aa35750611aa2826122ca565b5b9050919050565b600081611ab5611b11565b11158015611ac4575060005482105b8015611b02575060007c0100000000000000000000000000000000000000000000000000000000600460008581526020019081526020016000205416145b9050919050565b600033905090565b60006001905090565b60008082905080611b29611b11565b11611bb157600054811015611bb05760006004600083815260200190815260200160002054905060007c010000000000000000000000000000000000000000000000000000000082161415611bae575b6000811415611ba4576004600083600190039350838152602001908152602001600020549050611b79565b8092505050611be3565b505b5b6040517fdf2d9b4200000000000000000000000000000000000000000000000000000000815260040160405180910390fd5b919050565b60008060006006600085815260200190815260200160002090508092508254915050915091565b600073ffffffffffffffffffffffffffffffffffffffff8316925073ffffffffffffffffffffffffffffffffffffffff821691508382148383141790509392505050565b50505050565b60008060e883901c905060e8611c70868684612334565b62ffffff16901b9150509392505050565b600073ffffffffffffffffffffffffffffffffffffffff83169250814260a01b178317905092915050565b50505050565b6000612710905090565b611cc461233d565b73ffffffffffffffffffffffffffffffffffffffff16611ce26111bf565b73ffffffffffffffffffffffffffffffffffffffff1614611d38576040517f08c379a0000000000000000000000000000000000000000000000000000000008152600401611d2f90613167565b60405180910390fd5b565b6000600860009054906101000a900473ffffffffffffffffffffffffffffffffffffffff16905081600860006101000a81548173ffffffffffffffffffffffffffffffffffffffff021916908373ffffffffffffffffffffffffffffffffffffffff1602179055508173ffffffffffffffffffffffffffffffffffffffff168173ffffffffffffffffffffffffffffffffffffffff167f8be0079c531659141344cd1fd0a4f28419497f9722a3daafe3b4186f6b6457e060405160405180910390a35050565b611e1a828260405180602001604052806000815250612345565b5050565b60008373ffffffffffffffffffffffffffffffffffffffff1663150b7a02611e44611b09565b8786866040518563ffffffff1660e01b8152600401611e669493929190612fda565b602060405180830381600087803b158015611e8057600080fd5b505af1925050508015611eb157506040513d601f19601f82011682018060405250810190611eae9190612be3565b60015b611f2b573d8060008114611ee1576040519150601f19603f3d011682016040523d82523d6000602084013e611ee6565b606091505b50600081511415611f23576040517fd1a57ed600000000000000000000000000000000000000000000000000000000815260040160405180910390fd5b805181602001fd5b63150b7a0260e01b7bffffffffffffffffffffffffffffffffffffffffffffffffffffffff1916817bffffffffffffffffffffffffffffffffffffffffffffffffffffffff191614915050949350505050565b611f86611cb2565b6bffffffffffffffffffffffff16816bffffffffffffffffffffffff161115611fe4576040517f08c379a0000000000000000000000000000000000000000000000000000000008152600401611fdb906131e7565b60405180910390fd5b600073ffffffffffffffffffffffffffffffffffffffff168273ffffffffffffffffffffffffffffffffffffffff161415612054576040517f08c379a000000000000000000000000000000000000000000000000000000000815260040161204b90613207565b60405180910390fd5b60405180604001604052808373ffffffffffffffffffffffffffffffffffffffff168152602001826bffffffffffffffffffffffff16815250600960008201518160000160006101000a81548173ffffffffffffffffffffffffffffffffffffffff021916908373ffffffffffffffffffffffffffffffffffffffff16021790555060208201518160000160146101000a8154816bffffffffffffffffffffffff02191690836bffffffffffffffffffffffff1602179055509050505050565b6060600e8054612123906134d0565b80601f016020809104026020016040519081016040528092919081815260200182805461214f906134d0565b801561219c5780601f106121715761010080835404028352916020019161219c565b820191906000526020600020905b81548152906001019060200180831161217f57829003601f168201915b5050505050905090565b6060600060016121b5846123e2565b01905060008167ffffffffffffffff8111156121fa577f4e487b7100000000000000000000000000000000000000000000000000000000600052604160045260246000fd5b6040519080825280601f01601f19166020018201604052801561222c5781602001600182028036833780820191505090505b509050600082602001820190505b6001156122bf578080600190039150507f3031323334353637383961626364656600000000000000000000000000000000600a86061a8153600a85816122a9577f4e487b7100000000000000000000000000000000000000000000000000000000600052601260045260246000fd5b04945060008514156122ba576122bf565b61223a565b819350505050919050565b60007f01ffc9a7000000000000000000000000000000000000000000000000000000007bffffffffffffffffffffffffffffffffffffffffffffffffffffffff1916827bffffffffffffffffffffffffffffffffffffffffffffffffffffffff1916149050919050565b60009392505050565b600033905090565b61234f8383612619565b60008373ffffffffffffffffffffffffffffffffffffffff163b146123dd57600080549050600083820390505b61238f6000868380600101945086611e1e565b6123c5576040517fd1a57ed600000000000000000000000000000000000000000000000000000000815260040160405180910390fd5b81811061237c5781600054146123da57600080fd5b50505b505050565b600080600090507a184f03e93ff9f4daa797ed6e38ed64bf6a1f0100000000000000008310612466577a184f03e93ff9f4daa797ed6e38ed64bf6a1f010000000000000000838161245c577f4e487b7100000000000000000000000000000000000000000000000000000000600052601260045260246000fd5b0492506040810190505b6d04ee2d6d415b85acef810000000083106124c9576d04ee2d6d415b85acef810000000083816124bf577f4e487b7100000000000000000000000000000000000000000000000000000000600052601260045260246000fd5b0492506020810190505b662386f26fc10000831061251e57662386f26fc100008381612514577f4e487b7100000000000000000000000000000000000000000000000000000000600052601260045260246000fd5b0492506010810190505b6305f5e100831061256d576305f5e1008381612563577f4e487b7100000000000000000000000000000000000000000000000000000000600052601260045260246000fd5b0492506008810190505b61271083106125b85761271083816125ae577f4e487b7100000000000000000000000000000000000000000000000000000000600052601260045260246000fd5b0492506004810190505b6064831061260157606483816125f7577f4e487b7100000000000000000000000000000000000000000000000000000000600052601260045260246000fd5b0492506002810190505b600a8310612610576001810190505b80915050919050565b600080549050600082141561265a576040517fb562e8dd00000000000000000000000000000000000000000000000000000000815260040160405180910390fd5b6126676000848385611c53565b600160406001901b178202600560008573ffffffffffffffffffffffffffffffffffffffff1673ffffffffffffffffffffffffffffffffffffffff168152602001908152602001600020600082825401925050819055506126de836126cf6000866000611c59565b6126d8856127d6565b17611c81565b6004600083815260200190815260200160002081905550600080838301905073ffffffffffffffffffffffffffffffffffffffff85169150828260007fddf252ad1be2c89b69c2b068fc378daa952ba7f163c4a11628f55a4df523b3ef600080a4600183015b81811461277f57808360007fddf252ad1be2c89b69c2b068fc378daa952ba7f163c4a11628f55a4df523b3ef600080a4600181019050612744565b5060008214156127bb576040517f2e07630000000000000000000000000000000000000000000000000000000000815260040160405180910390fd5b8060008190555050506127d16000848385611cac565b505050565b60006001821460e11b9050919050565b8280546127f2906134d0565b90600052602060002090601f016020900481019282612814576000855561285b565b82601f1061282d57805160ff191683800117855561285b565b8280016001018555821561285b579182015b8281111561285a57825182559160200191906001019061283f565b5b509050612868919061286c565b5090565b5b8082111561288557600081600090555060010161286d565b5090565b600061289c61289784613267565b613242565b9050828152602081018484840111156128b457600080fd5b6128bf84828561348e565b509392505050565b60006128da6128d584613298565b613242565b9050828152602081018484840111156128f257600080fd5b6128fd84828561348e565b509392505050565b600081359050612914816138fc565b92915050565b60008135905061292981613913565b92915050565b60008135905061293e8161392a565b92915050565b6000815190506129538161392a565b92915050565b600082601f83011261296a57600080fd5b813561297a848260208601612889565b91505092915050565b600082601f83011261299457600080fd5b81356129a48482602086016128c7565b91505092915050565b6000813590506129bc81613941565b92915050565b6000813590506129d181613958565b92915050565b6000602082840312156129e957600080fd5b60006129f784828501612905565b91505092915050565b60008060408385031215612a1357600080fd5b6000612a2185828601612905565b9250506020612a3285828601612905565b9150509250929050565b600080600060608486031215612a5157600080fd5b6000612a5f86828701612905565b9350506020612a7086828701612905565b9250506040612a81868287016129ad565b9150509250925092565b60008060008060808587031215612aa157600080fd5b6000612aaf87828801612905565b9450506020612ac087828801612905565b9350506040612ad1878288016129ad565b925050606085013567ffffffffffffffff811115612aee57600080fd5b612afa87828801612959565b91505092959194509250565b60008060408385031215612b1957600080fd5b6000612b2785828601612905565b9250506020612b388582860161291a565b9150509250929050565b60008060408385031215612b5557600080fd5b6000612b6385828601612905565b9250506020612b74858286016129ad565b9150509250929050565b60008060408385031215612b9157600080fd5b6000612b9f85828601612905565b9250506020612bb0858286016129c2565b9150509250929050565b600060208284031215612bcc57600080fd5b6000612bda8482850161292f565b91505092915050565b600060208284031215612bf557600080fd5b6000612c0384828501612944565b91505092915050565b600060208284031215612c1e57600080fd5b600082013567ffffffffffffffff811115612c3857600080fd5b612c4484828501612983565b91505092915050565b600060208284031215612c5f57600080fd5b6000612c6d848285016129ad565b91505092915050565b60008060408385031215612c8957600080fd5b6000612c97858286016129ad565b9250506020612ca8858286016129ad565b9150509250929050565b612cbb816133f8565b82525050565b612cca8161340a565b82525050565b612cd981613416565b82525050565b6000612cea826132c9565b612cf481856132df565b9350612d0481856020860161349d565b612d0d816135ef565b840191505092915050565b6000612d23826132d4565b612d2d81856132fb565b9350612d3d81856020860161349d565b612d46816135ef565b840191505092915050565b6000612d5c826132d4565b612d66818561330c565b9350612d7681856020860161349d565b80840191505092915050565b6000612d8f600f836132fb565b9150612d9a82613600565b602082019050919050565b6000612db26026836132fb565b9150612dbd82613629565b604082019050919050565b6000612dd5602a836132fb565b9150612de082613678565b604082019050919050565b6000612df8601f836132fb565b9150612e03826136c7565b602082019050919050565b6000612e1b6019836132fb565b9150612e26826136f0565b602082019050919050565b6000612e3e6021836132fb565b9150612e4982613719565b604082019050919050565b6000612e6160058361330c565b9150612e6c82613768565b600582019050919050565b6000612e846020836132fb565b9150612e8f82613791565b602082019050919050565b6000612ea7602f836132fb565b9150612eb2826137ba565b604082019050919050565b6000612eca6025836132fb565b9150612ed582613809565b604082019050919050565b6000612eed6000836132f0565b9150612ef882613858565b600082019050919050565b6000612f10601c836132fb565b9150612f1b8261385b565b602082019050919050565b6000612f33602a836132fb565b9150612f3e82613884565b604082019050919050565b6000612f566019836132fb565b9150612f61826138d3565b602082019050919050565b612f758161346c565b82525050565b6000612f878285612d51565b9150612f938284612d51565b9150612f9e82612e54565b91508190509392505050565b6000612fb582612ee0565b9150819050919050565b6000602082019050612fd46000830184612cb2565b92915050565b6000608082019050612fef6000830187612cb2565b612ffc6020830186612cb2565b6130096040830185612f6c565b818103606083015261301b8184612cdf565b905095945050505050565b600060408201905061303b6000830185612cb2565b6130486020830184612f6c565b9392505050565b60006020820190506130646000830184612cc1565b92915050565b600060208201905061307f6000830184612cd0565b92915050565b6000602082019050818103600083015261309f8184612d18565b905092915050565b600060208201905081810360008301526130c081612d82565b9050919050565b600060208201905081810360008301526130e081612da5565b9050919050565b6000602082019050818103600083015261310081612dc8565b9050919050565b6000602082019050818103600083015261312081612deb565b9050919050565b6000602082019050818103600083015261314081612e0e565b9050919050565b6000602082019050818103600083015261316081612e31565b9050919050565b6000602082019050818103600083015261318081612e77565b9050919050565b600060208201905081810360008301526131a081612e9a565b9050919050565b600060208201905081810360008301526131c081612ebd565b9050919050565b600060208201905081810360008301526131e081612f03565b9050919050565b6000602082019050818103600083015261320081612f26565b9050919050565b6000602082019050818103600083015261322081612f49565b9050919050565b600060208201905061323c6000830184612f6c565b92915050565b600061324c61325d565b90506132588282613502565b919050565b6000604051905090565b600067ffffffffffffffff821115613282576132816135c0565b5b61328b826135ef565b9050602081019050919050565b600067ffffffffffffffff8211156132b3576132b26135c0565b5b6132bc826135ef565b9050602081019050919050565b600081519050919050565b600081519050919050565b600082825260208201905092915050565b600081905092915050565b600082825260208201905092915050565b600081905092915050565b60006133228261346c565b915061332d8361346c565b9250827fffffffffffffffffffffffffffffffffffffffffffffffffffffffffffffffff0382111561336257613361613533565b5b828201905092915050565b60006133788261346c565b91506133838361346c565b92508261339357613392613562565b5b828204905092915050565b60006133a98261346c565b91506133b48361346c565b9250817fffffffffffffffffffffffffffffffffffffffffffffffffffffffffffffffff04831182151516156133ed576133ec613533565b5b828202905092915050565b60006134038261344c565b9050919050565b60008115159050919050565b6000819050919050565b60007fffffffff0000000000000000000000000000000000000000000000000000000082169050919050565b600073ffffffffffffffffffffffffffffffffffffffff82169050919050565b6000819050919050565b60006bffffffffffffffffffffffff82169050919050565b82818337600083830152505050565b60005b838110156134bb5780820151818401526020810190506134a0565b838111156134ca576000848401525b50505050565b600060028204905060018216806134e857607f821691505b602082108114156134fc576134fb613591565b5b50919050565b61350b826135ef565b810181811067ffffffffffffffff8211171561352a576135296135c0565b5b80604052505050565b7f4e487b7100000000000000000000000000000000000000000000000000000000600052601160045260246000fd5b7f4e487b7100000000000000000000000000000000000000000000000000000000600052601260045260246000fd5b7f4e487b7100000000000000000000000000000000000000000000000000000000600052602260045260246000fd5b7f4e487b7100000000000000000000000000000000000000000000000000000000600052604160045260246000fd5b6000601f19601f8301169050919050565b7f496e76616c696420616464726573730000000000000000000000000000000000600082015250565b7f4f776e61626c653a206e6577206f776e657220697320746865207a65726f206160008201527f6464726573730000000000000000000000000000000000000000000000000000602082015250565b7f507572636861736520776f756c6420657863656564206d617820737570706c7960008201527f206f6620546f6b656e7300000000000000000000000000000000000000000000602082015250565b7f45746865722076616c75652073656e74206973206e6f7420636f727265637400600082015250565b7f5075626c69632073616c65206973206e6f742061637469766500000000000000600082015250565b7f546f74616c206e756d626572206f66206d696e74732063616e6e6f742062652060008201527f3000000000000000000000000000000000000000000000000000000000000000602082015250565b7f2e6a736f6e000000000000000000000000000000000000000000000000000000600082015250565b7f4f776e61626c653a2063616c6c6572206973206e6f7420746865206f776e6572600082015250565b7f4552433732314d657461646174613a2055524920717565727920666f72206e6f60008201527f6e6578697374656e7420746f6b656e0000000000000000000000000000000000602082015250565b7f546f74616c206e756d626572206f66206d696e74732063616e6e6f742065786360008201527f6565642035000000000000000000000000000000000000000000000000000000602082015250565b50565b7f596f752063616e206f6e6c79206d696e74203520696e20746f74616c00000000600082015250565b7f455243323938313a20726f79616c7479206665652077696c6c2065786365656460008201527f2073616c65507269636500000000000000000000000000000000000000000000602082015250565b7f455243323938313a20696e76616c696420726563656976657200000000000000600082015250565b613905816133f8565b811461391057600080fd5b50565b61391c8161340a565b811461392757600080fd5b50565b61393381613420565b811461393e57600080fd5b50565b61394a8161346c565b811461395557600080fd5b50565b61396181613476565b811461396c57600080fd5b5056fe697066733a2f2f7b516d5a47646a4676616f4354646e6254334e3238393777554477314d7336674a47364e38526257716747703862447d2f68696464656e2e6a736f6ea2646970667358221220e7bcb18121d2dc04eda3dada1e2e6dcd8b854fd99ddc9f63eda0d6abb669076764736f6c63430008040033",
  "linkReferences": {},
  "deployedLinkReferences": {}
}